{
  "_format": "hh-sol-artifact-1",
  "contractName": "Lock",
  "sourceName": "contracts/Lock.sol",
  "abi": [
    {
      "inputs": [],
      "stateMutability": "nonpayable",
      "type": "constructor"
    },
    {
      "inputs": [],
      "name": "AccessControlBadConfirmation",
      "type": "error"
    },
    {
      "inputs": [
        {
          "internalType": "address",
          "name": "account",
          "type": "address"
        },
        {
          "internalType": "bytes32",
          "name": "neededRole",
          "type": "bytes32"
        }
      ],
      "name": "AccessControlUnauthorizedAccount",
      "type": "error"
    },
    {
      "inputs": [
        {
          "internalType": "address",
          "name": "target",
          "type": "address"
        }
      ],
      "name": "AddressEmptyCode",
      "type": "error"
    },
    {
      "inputs": [
        {
          "internalType": "address",
          "name": "implementation",
          "type": "address"
        }
      ],
      "name": "ERC1967InvalidImplementation",
      "type": "error"
    },
    {
      "inputs": [],
      "name": "ERC1967NonPayable",
      "type": "error"
    },
    {
      "inputs": [
        {
          "internalType": "address",
          "name": "spender",
          "type": "address"
        },
        {
          "internalType": "uint256",
          "name": "allowance",
          "type": "uint256"
        },
        {
          "internalType": "uint256",
          "name": "needed",
          "type": "uint256"
        }
      ],
      "name": "ERC20InsufficientAllowance",
      "type": "error"
    },
    {
      "inputs": [
        {
          "internalType": "address",
          "name": "sender",
          "type": "address"
        },
        {
          "internalType": "uint256",
          "name": "balance",
          "type": "uint256"
        },
        {
          "internalType": "uint256",
          "name": "needed",
          "type": "uint256"
        }
      ],
      "name": "ERC20InsufficientBalance",
      "type": "error"
    },
    {
      "inputs": [
        {
          "internalType": "address",
          "name": "approver",
          "type": "address"
        }
      ],
      "name": "ERC20InvalidApprover",
      "type": "error"
    },
    {
      "inputs": [
        {
          "internalType": "address",
          "name": "receiver",
          "type": "address"
        }
      ],
      "name": "ERC20InvalidReceiver",
      "type": "error"
    },
    {
      "inputs": [
        {
          "internalType": "address",
          "name": "sender",
          "type": "address"
        }
      ],
      "name": "ERC20InvalidSender",
      "type": "error"
    },
    {
      "inputs": [
        {
          "internalType": "address",
          "name": "spender",
          "type": "address"
        }
      ],
      "name": "ERC20InvalidSpender",
      "type": "error"
    },
    {
      "inputs": [],
      "name": "EnforcedPause",
      "type": "error"
    },
    {
      "inputs": [],
      "name": "ExpectedPause",
      "type": "error"
    },
    {
      "inputs": [],
      "name": "FailedInnerCall",
      "type": "error"
    },
    {
      "inputs": [],
      "name": "InvalidInitialization",
      "type": "error"
    },
    {
      "inputs": [],
      "name": "NotInitializing",
      "type": "error"
    },
    {
      "inputs": [],
      "name": "UUPSUnauthorizedCallContext",
      "type": "error"
    },
    {
      "inputs": [
        {
          "internalType": "bytes32",
          "name": "slot",
          "type": "bytes32"
        }
      ],
      "name": "UUPSUnsupportedProxiableUUID",
      "type": "error"
    },
    {
      "anonymous": false,
      "inputs": [
        {
          "indexed": true,
          "internalType": "address",
          "name": "owner",
          "type": "address"
        },
        {
          "indexed": true,
          "internalType": "address",
          "name": "spender",
          "type": "address"
        },
        {
          "indexed": false,
          "internalType": "uint256",
          "name": "value",
          "type": "uint256"
        }
      ],
      "name": "Approval",
      "type": "event"
    },
    {
      "anonymous": false,
      "inputs": [
        {
          "indexed": false,
          "internalType": "uint64",
          "name": "version",
          "type": "uint64"
        }
      ],
      "name": "Initialized",
      "type": "event"
    },
    {
      "anonymous": false,
      "inputs": [
        {
          "indexed": false,
          "internalType": "address",
          "name": "account",
          "type": "address"
        }
      ],
      "name": "Paused",
      "type": "event"
    },
    {
      "anonymous": false,
      "inputs": [
        {
          "indexed": true,
          "internalType": "bytes32",
          "name": "role",
          "type": "bytes32"
        },
        {
          "indexed": true,
          "internalType": "bytes32",
          "name": "previousAdminRole",
          "type": "bytes32"
        },
        {
          "indexed": true,
          "internalType": "bytes32",
          "name": "newAdminRole",
          "type": "bytes32"
        }
      ],
      "name": "RoleAdminChanged",
      "type": "event"
    },
    {
      "anonymous": false,
      "inputs": [
        {
          "indexed": true,
          "internalType": "bytes32",
          "name": "role",
          "type": "bytes32"
        },
        {
          "indexed": true,
          "internalType": "address",
          "name": "account",
          "type": "address"
        },
        {
          "indexed": true,
          "internalType": "address",
          "name": "sender",
          "type": "address"
        }
      ],
      "name": "RoleGranted",
      "type": "event"
    },
    {
      "anonymous": false,
      "inputs": [
        {
          "indexed": true,
          "internalType": "bytes32",
          "name": "role",
          "type": "bytes32"
        },
        {
          "indexed": true,
          "internalType": "address",
          "name": "account",
          "type": "address"
        },
        {
          "indexed": true,
          "internalType": "address",
          "name": "sender",
          "type": "address"
        }
      ],
      "name": "RoleRevoked",
      "type": "event"
    },
    {
      "anonymous": false,
      "inputs": [
        {
          "indexed": true,
          "internalType": "address",
          "name": "from",
          "type": "address"
        },
        {
          "indexed": true,
          "internalType": "address",
          "name": "to",
          "type": "address"
        },
        {
          "indexed": false,
          "internalType": "uint256",
          "name": "value",
          "type": "uint256"
        }
      ],
      "name": "Transfer",
      "type": "event"
    },
    {
      "anonymous": false,
      "inputs": [
        {
          "indexed": false,
          "internalType": "address",
          "name": "account",
          "type": "address"
        }
      ],
      "name": "Unpaused",
      "type": "event"
    },
    {
      "anonymous": false,
      "inputs": [
        {
          "indexed": true,
          "internalType": "address",
          "name": "implementation",
          "type": "address"
        }
      ],
      "name": "Upgraded",
      "type": "event"
    },
    {
      "inputs": [],
      "name": "DEFAULT_ADMIN_ROLE",
      "outputs": [
        {
          "internalType": "bytes32",
          "name": "",
          "type": "bytes32"
        }
      ],
      "stateMutability": "view",
      "type": "function"
    },
    {
      "inputs": [],
      "name": "MINTER_ROLE",
      "outputs": [
        {
          "internalType": "bytes32",
          "name": "",
          "type": "bytes32"
        }
      ],
      "stateMutability": "view",
      "type": "function"
    },
    {
      "inputs": [],
      "name": "PAUSER_ROLE",
      "outputs": [
        {
          "internalType": "bytes32",
          "name": "",
          "type": "bytes32"
        }
      ],
      "stateMutability": "view",
      "type": "function"
    },
    {
      "inputs": [],
      "name": "UPGRADER_ROLE",
      "outputs": [
        {
          "internalType": "bytes32",
          "name": "",
          "type": "bytes32"
        }
      ],
      "stateMutability": "view",
      "type": "function"
    },
    {
      "inputs": [],
      "name": "UPGRADE_INTERFACE_VERSION",
      "outputs": [
        {
          "internalType": "string",
          "name": "",
          "type": "string"
        }
      ],
      "stateMutability": "view",
      "type": "function"
    },
    {
      "inputs": [
        {
          "internalType": "address",
          "name": "owner",
          "type": "address"
        },
        {
          "internalType": "address",
          "name": "spender",
          "type": "address"
        }
      ],
      "name": "allowance",
      "outputs": [
        {
          "internalType": "uint256",
          "name": "",
          "type": "uint256"
        }
      ],
      "stateMutability": "view",
      "type": "function"
    },
    {
      "inputs": [
        {
          "internalType": "address",
          "name": "spender",
          "type": "address"
        },
        {
          "internalType": "uint256",
          "name": "value",
          "type": "uint256"
        }
      ],
      "name": "approve",
      "outputs": [
        {
          "internalType": "bool",
          "name": "",
          "type": "bool"
        }
      ],
      "stateMutability": "nonpayable",
      "type": "function"
    },
    {
      "inputs": [
        {
          "internalType": "address",
          "name": "account",
          "type": "address"
        }
      ],
      "name": "balanceOf",
      "outputs": [
        {
          "internalType": "uint256",
          "name": "",
          "type": "uint256"
        }
      ],
      "stateMutability": "view",
      "type": "function"
    },
    {
      "inputs": [
        {
          "internalType": "uint256",
          "name": "value",
          "type": "uint256"
        }
      ],
      "name": "burn",
      "outputs": [],
      "stateMutability": "nonpayable",
      "type": "function"
    },
    {
      "inputs": [
        {
          "internalType": "address",
          "name": "account",
          "type": "address"
        },
        {
          "internalType": "uint256",
          "name": "value",
          "type": "uint256"
        }
      ],
      "name": "burnFrom",
      "outputs": [],
      "stateMutability": "nonpayable",
      "type": "function"
    },
    {
      "inputs": [],
      "name": "decimals",
      "outputs": [
        {
          "internalType": "uint8",
          "name": "",
          "type": "uint8"
        }
      ],
      "stateMutability": "view",
      "type": "function"
    },
    {
      "inputs": [
        {
          "internalType": "bytes32",
          "name": "role",
          "type": "bytes32"
        }
      ],
      "name": "getRoleAdmin",
      "outputs": [
        {
          "internalType": "bytes32",
          "name": "",
          "type": "bytes32"
        }
      ],
      "stateMutability": "view",
      "type": "function"
    },
    {
      "inputs": [
        {
          "internalType": "bytes32",
          "name": "role",
          "type": "bytes32"
        },
        {
          "internalType": "address",
          "name": "account",
          "type": "address"
        }
      ],
      "name": "grantRole",
      "outputs": [],
      "stateMutability": "nonpayable",
      "type": "function"
    },
    {
      "inputs": [
        {
          "internalType": "bytes32",
          "name": "role",
          "type": "bytes32"
        },
        {
          "internalType": "address",
          "name": "account",
          "type": "address"
        }
      ],
      "name": "hasRole",
      "outputs": [
        {
          "internalType": "bool",
          "name": "",
          "type": "bool"
        }
      ],
      "stateMutability": "view",
      "type": "function"
    },
    {
      "inputs": [
        {
          "internalType": "address",
          "name": "defaultAdmin",
          "type": "address"
        },
        {
          "internalType": "address",
          "name": "pauser",
          "type": "address"
        },
        {
          "internalType": "address",
          "name": "minter",
          "type": "address"
        },
        {
          "internalType": "address",
          "name": "upgrader",
          "type": "address"
        }
      ],
      "name": "initialize",
      "outputs": [],
      "stateMutability": "nonpayable",
      "type": "function"
    },
    {
      "inputs": [
        {
          "internalType": "address",
          "name": "to",
          "type": "address"
        },
        {
          "internalType": "uint256",
          "name": "amount",
          "type": "uint256"
        }
      ],
      "name": "mint",
      "outputs": [],
      "stateMutability": "nonpayable",
      "type": "function"
    },
    {
      "inputs": [],
      "name": "name",
      "outputs": [
        {
          "internalType": "string",
          "name": "",
          "type": "string"
        }
      ],
      "stateMutability": "view",
      "type": "function"
    },
    {
      "inputs": [],
      "name": "pause",
      "outputs": [],
      "stateMutability": "nonpayable",
      "type": "function"
    },
    {
      "inputs": [],
      "name": "paused",
      "outputs": [
        {
          "internalType": "bool",
          "name": "",
          "type": "bool"
        }
      ],
      "stateMutability": "view",
      "type": "function"
    },
    {
      "inputs": [],
      "name": "proxiableUUID",
      "outputs": [
        {
          "internalType": "bytes32",
          "name": "",
          "type": "bytes32"
        }
      ],
      "stateMutability": "view",
      "type": "function"
    },
    {
      "inputs": [
        {
          "internalType": "bytes32",
          "name": "role",
          "type": "bytes32"
        },
        {
          "internalType": "address",
          "name": "callerConfirmation",
          "type": "address"
        }
      ],
      "name": "renounceRole",
      "outputs": [],
      "stateMutability": "nonpayable",
      "type": "function"
    },
    {
      "inputs": [
        {
          "internalType": "bytes32",
          "name": "role",
          "type": "bytes32"
        },
        {
          "internalType": "address",
          "name": "account",
          "type": "address"
        }
      ],
      "name": "revokeRole",
      "outputs": [],
      "stateMutability": "nonpayable",
      "type": "function"
    },
    {
      "inputs": [
        {
          "internalType": "bytes4",
          "name": "interfaceId",
          "type": "bytes4"
        }
      ],
      "name": "supportsInterface",
      "outputs": [
        {
          "internalType": "bool",
          "name": "",
          "type": "bool"
        }
      ],
      "stateMutability": "view",
      "type": "function"
    },
    {
      "inputs": [],
      "name": "symbol",
      "outputs": [
        {
          "internalType": "string",
          "name": "",
          "type": "string"
        }
      ],
      "stateMutability": "view",
      "type": "function"
    },
    {
      "inputs": [],
      "name": "totalSupply",
      "outputs": [
        {
          "internalType": "uint256",
          "name": "",
          "type": "uint256"
        }
      ],
      "stateMutability": "view",
      "type": "function"
    },
    {
      "inputs": [
        {
          "internalType": "address",
          "name": "to",
          "type": "address"
        },
        {
          "internalType": "uint256",
          "name": "value",
          "type": "uint256"
        }
      ],
      "name": "transfer",
      "outputs": [
        {
          "internalType": "bool",
          "name": "",
          "type": "bool"
        }
      ],
      "stateMutability": "nonpayable",
      "type": "function"
    },
    {
      "inputs": [
        {
          "internalType": "address",
          "name": "from",
          "type": "address"
        },
        {
          "internalType": "address",
          "name": "to",
          "type": "address"
        },
        {
          "internalType": "uint256",
          "name": "value",
          "type": "uint256"
        }
      ],
      "name": "transferFrom",
      "outputs": [
        {
          "internalType": "bool",
          "name": "",
          "type": "bool"
        }
      ],
      "stateMutability": "nonpayable",
      "type": "function"
    },
    {
      "inputs": [],
      "name": "unpause",
      "outputs": [],
      "stateMutability": "nonpayable",
      "type": "function"
    },
    {
      "inputs": [
        {
          "internalType": "address",
          "name": "newImplementation",
          "type": "address"
        },
        {
          "internalType": "bytes",
          "name": "data",
          "type": "bytes"
        }
      ],
      "name": "upgradeToAndCall",
      "outputs": [],
      "stateMutability": "payable",
      "type": "function"
    }
  ],
  "bytecode": "0x60a06040523073ffffffffffffffffffffffffffffffffffffffff1660809073ffffffffffffffffffffffffffffffffffffffff168152503480156200004457600080fd5b50620000556200005b60201b60201c565b620001cf565b60006200006d6200016560201b60201c565b90508060000160089054906101000a900460ff1615620000b9576040517ff92ee8a900000000000000000000000000000000000000000000000000000000815260040160405180910390fd5b67ffffffffffffffff80168160000160009054906101000a900467ffffffffffffffff1667ffffffffffffffff1614620001625767ffffffffffffffff8160000160006101000a81548167ffffffffffffffff021916908367ffffffffffffffff1602179055507fc7f505b2f371ae2175ee4913f4499e1f2633a7b5936321eed1cdaeb6115181d267ffffffffffffffff604051620001599190620001b2565b60405180910390a15b50565b60007ff0c57e16840df040f15088dc2f81fe391c3923bec73e23a9662efc9c229c6a00905090565b600067ffffffffffffffff82169050919050565b620001ac816200018d565b82525050565b6000602082019050620001c96000830184620001a1565b92915050565b608051612e7f620001f9600039600081816116260152818161167b01526118590152612e7f6000f3fe6080604052600436106101c25760003560e01c80635c975abb116100f7578063a9059cbb11610095578063dd62ed3e11610064578063dd62ed3e14610635578063e63ab1e914610672578063f72c0d8b1461069d578063f8c8765e146106c8576101c2565b8063a9059cbb14610579578063ad3cb1cc146105b6578063d5391393146105e1578063d547741f1461060c576101c2565b80638456cb59116100d15780638456cb59146104cf57806391d14854146104e657806395d89b4114610523578063a217fddf1461054e576101c2565b80635c975abb1461043e57806370a082311461046957806379cc6790146104a6576101c2565b8063313ce5671161016457806340c10f191161013e57806340c10f19146103a557806342966c68146103ce5780634f1ef286146103f757806352d1902d14610413576101c2565b8063313ce5671461033a57806336568abe146103655780633f4ba83a1461038e576101c2565b806318160ddd116101a057806318160ddd1461026c57806323b872dd14610297578063248a9ca3146102d45780632f2ff15d14610311576101c2565b806301ffc9a7146101c757806306fdde0314610204578063095ea7b31461022f575b600080fd5b3480156101d357600080fd5b506101ee60048036038101906101e99190612378565b6106f1565b6040516101fb91906123c0565b60405180910390f35b34801561021057600080fd5b5061021961076b565b604051610226919061246b565b60405180910390f35b34801561023b57600080fd5b5061025660048036038101906102519190612521565b61080c565b60405161026391906123c0565b60405180910390f35b34801561027857600080fd5b5061028161082f565b60405161028e9190612570565b60405180910390f35b3480156102a357600080fd5b506102be60048036038101906102b9919061258b565b610847565b6040516102cb91906123c0565b60405180910390f35b3480156102e057600080fd5b506102fb60048036038101906102f69190612614565b610876565b6040516103089190612650565b60405180910390f35b34801561031d57600080fd5b506103386004803603810190610333919061266b565b6108a4565b005b34801561034657600080fd5b5061034f6108c6565b60405161035c91906126c7565b60405180910390f35b34801561037157600080fd5b5061038c6004803603810190610387919061266b565b6108cf565b005b34801561039a57600080fd5b506103a361094a565b005b3480156103b157600080fd5b506103cc60048036038101906103c79190612521565b61097f565b005b3480156103da57600080fd5b506103f560048036038101906103f091906126e2565b6109b8565b005b610411600480360381019061040c9190612844565b6109cc565b005b34801561041f57600080fd5b506104286109eb565b6040516104359190612650565b60405180910390f35b34801561044a57600080fd5b50610453610a1e565b60405161046091906123c0565b60405180910390f35b34801561047557600080fd5b50610490600480360381019061048b91906128a0565b610a43565b60405161049d9190612570565b60405180910390f35b3480156104b257600080fd5b506104cd60048036038101906104c89190612521565b610a9a565b005b3480156104db57600080fd5b506104e4610aba565b005b3480156104f257600080fd5b5061050d6004803603810190610508919061266b565b610aef565b60405161051a91906123c0565b60405180910390f35b34801561052f57600080fd5b50610538610b68565b604051610545919061246b565b60405180910390f35b34801561055a57600080fd5b50610563610c09565b6040516105709190612650565b60405180910390f35b34801561058557600080fd5b506105a0600480360381019061059b9190612521565b610c10565b6040516105ad91906123c0565b60405180910390f35b3480156105c257600080fd5b506105cb610c33565b6040516105d8919061246b565b60405180910390f35b3480156105ed57600080fd5b506105f6610c6c565b6040516106039190612650565b60405180910390f35b34801561061857600080fd5b50610633600480360381019061062e919061266b565b610c90565b005b34801561064157600080fd5b5061065c600480360381019061065791906128cd565b610cb2565b6040516106699190612570565b60405180910390f35b34801561067e57600080fd5b50610687610d47565b6040516106949190612650565b60405180910390f35b3480156106a957600080fd5b506106b2610d6b565b6040516106bf9190612650565b60405180910390f35b3480156106d457600080fd5b506106ef60048036038101906106ea919061290d565b610d8f565b005b60007f7965db0b000000000000000000000000000000000000000000000000000000007bffffffffffffffffffffffffffffffffffffffffffffffffffffffff1916827bffffffffffffffffffffffffffffffffffffffffffffffffffffffff1916148061076457506107638261103b565b5b9050919050565b606060006107776110a5565b9050806003018054610788906129a3565b80601f01602080910402602001604051908101604052809291908181526020018280546107b4906129a3565b80156108015780601f106107d657610100808354040283529160200191610801565b820191906000526020600020905b8154815290600101906020018083116107e457829003601f168201915b505050505091505090565b6000806108176110cd565b90506108248185856110d5565b600191505092915050565b60008061083a6110a5565b9050806002015491505090565b6000806108526110cd565b905061085f8582856110e7565b61086a85858561117b565b60019150509392505050565b60008061088161126f565b905080600001600084815260200190815260200160002060010154915050919050565b6108ad82610876565b6108b681611297565b6108c083836112ab565b50505050565b60006012905090565b6108d76110cd565b73ffffffffffffffffffffffffffffffffffffffff168173ffffffffffffffffffffffffffffffffffffffff161461093b576040517f6697b23200000000000000000000000000000000000000000000000000000000815260040160405180910390fd5b61094582826113ac565b505050565b7f65d7a28e3265b37a6474929f336521b332c1681b933f6cb9f3376673440d862a61097481611297565b61097c6114ae565b50565b7f9f2df0fed2c77648de5860a4cc508cd0818c85b8b8a1ab4ceeef8d981c8956a66109a981611297565b6109b38383611520565b505050565b6109c96109c36110cd565b826115a2565b50565b6109d4611624565b6109dd8261170a565b6109e78282611738565b5050565b60006109f5611857565b7f360894a13ba1a3210667c828492db98dca3e2076cc3735a920a3ca505d382bbc60001b905090565b600080610a296118de565b90508060000160009054906101000a900460ff1691505090565b600080610a4e6110a5565b90508060000160008473ffffffffffffffffffffffffffffffffffffffff1673ffffffffffffffffffffffffffffffffffffffff16815260200190815260200160002054915050919050565b610aac82610aa66110cd565b836110e7565b610ab682826115a2565b5050565b7f65d7a28e3265b37a6474929f336521b332c1681b933f6cb9f3376673440d862a610ae481611297565b610aec611906565b50565b600080610afa61126f565b905080600001600085815260200190815260200160002060000160008473ffffffffffffffffffffffffffffffffffffffff1673ffffffffffffffffffffffffffffffffffffffff16815260200190815260200160002060009054906101000a900460ff1691505092915050565b60606000610b746110a5565b9050806004018054610b85906129a3565b80601f0160208091040260200160405190810160405280929190818152602001828054610bb1906129a3565b8015610bfe5780601f10610bd357610100808354040283529160200191610bfe565b820191906000526020600020905b815481529060010190602001808311610be157829003601f168201915b505050505091505090565b6000801b81565b600080610c1b6110cd565b9050610c2881858561117b565b600191505092915050565b6040518060400160405280600581526020017f352e302e3000000000000000000000000000000000000000000000000000000081525081565b7f9f2df0fed2c77648de5860a4cc508cd0818c85b8b8a1ab4ceeef8d981c8956a681565b610c9982610876565b610ca281611297565b610cac83836113ac565b50505050565b600080610cbd6110a5565b90508060010160008573ffffffffffffffffffffffffffffffffffffffff1673ffffffffffffffffffffffffffffffffffffffff16815260200190815260200160002060008473ffffffffffffffffffffffffffffffffffffffff1673ffffffffffffffffffffffffffffffffffffffff1681526020019081526020016000205491505092915050565b7f65d7a28e3265b37a6474929f336521b332c1681b933f6cb9f3376673440d862a81565b7f189ab7a9244df0848122154315af71fe140f3db0fe014031783b0946b8c9d2e381565b6000610d99611978565b905060008160000160089054906101000a900460ff1615905060008260000160009054906101000a900467ffffffffffffffff1690506000808267ffffffffffffffff16148015610de75750825b9050600060018367ffffffffffffffff16148015610e1c575060003073ffffffffffffffffffffffffffffffffffffffff163b145b905081158015610e2a575080155b15610e61576040517ff92ee8a900000000000000000000000000000000000000000000000000000000815260040160405180910390fd5b60018560000160006101000a81548167ffffffffffffffff021916908367ffffffffffffffff1602179055508315610eb15760018560000160086101000a81548160ff0219169083151502179055505b610f256040518060400160405280600781526020017f4d79546f6b656e000000000000000000000000000000000000000000000000008152506040518060400160405280600381526020017f4d544b00000000000000000000000000000000000000000000000000000000008152506119a0565b610f2d6119b6565b610f356119c0565b610f3d6119d2565b610f456119dc565b610f526000801b8a6112ab565b50610f7d7f65d7a28e3265b37a6474929f336521b332c1681b933f6cb9f3376673440d862a896112ab565b50610fa87f9f2df0fed2c77648de5860a4cc508cd0818c85b8b8a1ab4ceeef8d981c8956a6886112ab565b50610fd37f189ab7a9244df0848122154315af71fe140f3db0fe014031783b0946b8c9d2e3876112ab565b5083156110305760008560000160086101000a81548160ff0219169083151502179055507fc7f505b2f371ae2175ee4913f4499e1f2633a7b5936321eed1cdaeb6115181d260016040516110279190612a2d565b60405180910390a15b505050505050505050565b60007f01ffc9a7000000000000000000000000000000000000000000000000000000007bffffffffffffffffffffffffffffffffffffffffffffffffffffffff1916827bffffffffffffffffffffffffffffffffffffffffffffffffffffffff1916149050919050565b60007f52c63247e1f47db19d5ce0460030c497f067ca4cebf71ba98eeadabe20bace00905090565b600033905090565b6110e283838360016119e6565b505050565b60006110f38484610cb2565b90507fffffffffffffffffffffffffffffffffffffffffffffffffffffffffffffffff81146111755781811015611165578281836040517ffb8f41b200000000000000000000000000000000000000000000000000000000815260040161115c93929190612a57565b60405180910390fd5b611174848484840360006119e6565b5b50505050565b600073ffffffffffffffffffffffffffffffffffffffff168373ffffffffffffffffffffffffffffffffffffffff16036111ed5760006040517f96c6fd1e0000000000000000000000000000000000000000000000000000000081526004016111e49190612a8e565b60405180910390fd5b600073ffffffffffffffffffffffffffffffffffffffff168273ffffffffffffffffffffffffffffffffffffffff160361125f5760006040517fec442f050000000000000000000000000000000000000000000000000000000081526004016112569190612a8e565b60405180910390fd5b61126a838383611bcc565b505050565b60007f02dd7bc7dec4dceedda775e58dd541e08a116c6c53815c0bd028192f7b626800905090565b6112a8816112a36110cd565b611bdc565b50565b6000806112b661126f565b90506112c28484610aef565b6113a057600181600001600086815260200190815260200160002060000160008573ffffffffffffffffffffffffffffffffffffffff1673ffffffffffffffffffffffffffffffffffffffff16815260200190815260200160002060006101000a81548160ff02191690831515021790555061133c6110cd565b73ffffffffffffffffffffffffffffffffffffffff168373ffffffffffffffffffffffffffffffffffffffff16857f2f8788117e7eff1d82e926ec794901d17c78024a50270940304540a733656f0d60405160405180910390a460019150506113a6565b60009150505b92915050565b6000806113b761126f565b90506113c38484610aef565b156114a257600081600001600086815260200190815260200160002060000160008573ffffffffffffffffffffffffffffffffffffffff1673ffffffffffffffffffffffffffffffffffffffff16815260200190815260200160002060006101000a81548160ff02191690831515021790555061143e6110cd565b73ffffffffffffffffffffffffffffffffffffffff168373ffffffffffffffffffffffffffffffffffffffff16857ff6391f5c32d9c69d2a47ea670b442974b53935d1edc7fd64eb21e047a839171b60405160405180910390a460019150506114a8565b60009150505b92915050565b6114b6611c2d565b60006114c06118de565b905060008160000160006101000a81548160ff0219169083151502179055507f5db9ee0a495bf2e6ff9c91a7834c1ba4fdd244a5e8aa4e537bd38aeae4b073aa6115086110cd565b6040516115159190612a8e565b60405180910390a150565b600073ffffffffffffffffffffffffffffffffffffffff168273ffffffffffffffffffffffffffffffffffffffff16036115925760006040517fec442f050000000000000000000000000000000000000000000000000000000081526004016115899190612a8e565b60405180910390fd5b61159e60008383611bcc565b5050565b600073ffffffffffffffffffffffffffffffffffffffff168273ffffffffffffffffffffffffffffffffffffffff16036116145760006040517f96c6fd1e00000000000000000000000000000000000000000000000000000000815260040161160b9190612a8e565b60405180910390fd5b61162082600083611bcc565b5050565b7f000000000000000000000000000000000000000000000000000000000000000073ffffffffffffffffffffffffffffffffffffffff163073ffffffffffffffffffffffffffffffffffffffff1614806116d157507f000000000000000000000000000000000000000000000000000000000000000073ffffffffffffffffffffffffffffffffffffffff166116b8611c6d565b73ffffffffffffffffffffffffffffffffffffffff1614155b15611708576040517fe07c8dba00000000000000000000000000000000000000000000000000000000815260040160405180910390fd5b565b7f189ab7a9244df0848122154315af71fe140f3db0fe014031783b0946b8c9d2e361173481611297565b5050565b8173ffffffffffffffffffffffffffffffffffffffff166352d1902d6040518163ffffffff1660e01b8152600401602060405180830381865afa9250505080156117a057506040513d601f19601f8201168201806040525081019061179d9190612abe565b60015b6117e157816040517f4c9c8ce30000000000000000000000000000000000000000000000000000000081526004016117d89190612a8e565b60405180910390fd5b7f360894a13ba1a3210667c828492db98dca3e2076cc3735a920a3ca505d382bbc60001b811461184857806040517faa1d49a400000000000000000000000000000000000000000000000000000000815260040161183f9190612650565b60405180910390fd5b6118528383611cc4565b505050565b7f000000000000000000000000000000000000000000000000000000000000000073ffffffffffffffffffffffffffffffffffffffff163073ffffffffffffffffffffffffffffffffffffffff16146118dc576040517fe07c8dba00000000000000000000000000000000000000000000000000000000815260040160405180910390fd5b565b60007fcd5ed15c6e187e77e9aee88184c21f4f2182ab5827cb3b7e07fbedcd63f03300905090565b61190e611d37565b60006119186118de565b905060018160000160006101000a81548160ff0219169083151502179055507f62e78cea01bee320cd4e420270b5ea74000d11b0c9f74754ebdbfc544b05a2586119606110cd565b60405161196d9190612a8e565b60405180910390a150565b60007ff0c57e16840df040f15088dc2f81fe391c3923bec73e23a9662efc9c229c6a00905090565b6119a8611d78565b6119b28282611db8565b5050565b6119be611d78565b565b6119c8611d78565b6119d0611df5565b565b6119da611d78565b565b6119e4611d78565b565b60006119f06110a5565b9050600073ffffffffffffffffffffffffffffffffffffffff168573ffffffffffffffffffffffffffffffffffffffff1603611a645760006040517fe602df05000000000000000000000000000000000000000000000000000000008152600401611a5b9190612a8e565b60405180910390fd5b600073ffffffffffffffffffffffffffffffffffffffff168473ffffffffffffffffffffffffffffffffffffffff1603611ad65760006040517f94280d62000000000000000000000000000000000000000000000000000000008152600401611acd9190612a8e565b60405180910390fd5b828160010160008773ffffffffffffffffffffffffffffffffffffffff1673ffffffffffffffffffffffffffffffffffffffff16815260200190815260200160002060008673ffffffffffffffffffffffffffffffffffffffff1673ffffffffffffffffffffffffffffffffffffffff168152602001908152602001600020819055508115611bc5578373ffffffffffffffffffffffffffffffffffffffff168573ffffffffffffffffffffffffffffffffffffffff167f8c5be1e5ebec7d5bd14f71427d1e84f3dd0314c0f7b2291e5b200ac8c7c3b92585604051611bbc9190612570565b60405180910390a35b5050505050565b611bd7838383611e29565b505050565b611be68282610aef565b611c295780826040517fe2517d3f000000000000000000000000000000000000000000000000000000008152600401611c20929190612aeb565b60405180910390fd5b5050565b611c35610a1e565b611c6b576040517f8dfc202b00000000000000000000000000000000000000000000000000000000815260040160405180910390fd5b565b6000611c9b7f360894a13ba1a3210667c828492db98dca3e2076cc3735a920a3ca505d382bbc60001b611e41565b60000160009054906101000a900473ffffffffffffffffffffffffffffffffffffffff16905090565b611ccd82611e4b565b8173ffffffffffffffffffffffffffffffffffffffff167fbc7cd75a20ee27fd9adebab32041f755214dbc6bffa90cc0225b39da2e5c2d3b60405160405180910390a2600081511115611d2a57611d248282611f18565b50611d33565b611d32611f9c565b5b5050565b611d3f610a1e565b15611d76576040517fd93c066500000000000000000000000000000000000000000000000000000000815260040160405180910390fd5b565b611d80611fd9565b611db6576040517fd7e6bcf800000000000000000000000000000000000000000000000000000000815260040160405180910390fd5b565b611dc0611d78565b6000611dca6110a5565b905082816003019081611ddd9190612cb6565b5081816004019081611def9190612cb6565b50505050565b611dfd611d78565b6000611e076118de565b905060008160000160006101000a81548160ff02191690831515021790555050565b611e31611d37565b611e3c838383611ff9565b505050565b6000819050919050565b60008173ffffffffffffffffffffffffffffffffffffffff163b03611ea757806040517f4c9c8ce3000000000000000000000000000000000000000000000000000000008152600401611e9e9190612a8e565b60405180910390fd5b80611ed47f360894a13ba1a3210667c828492db98dca3e2076cc3735a920a3ca505d382bbc60001b611e41565b60000160006101000a81548173ffffffffffffffffffffffffffffffffffffffff021916908373ffffffffffffffffffffffffffffffffffffffff16021790555050565b60606000808473ffffffffffffffffffffffffffffffffffffffff1684604051611f429190612dcf565b600060405180830381855af49150503d8060008114611f7d576040519150601f19603f3d011682016040523d82523d6000602084013e611f82565b606091505b5091509150611f92858383612238565b9250505092915050565b6000341115611fd7576040517fb398979f00000000000000000000000000000000000000000000000000000000815260040160405180910390fd5b565b6000611fe3611978565b60000160089054906101000a900460ff16905090565b60006120036110a5565b9050600073ffffffffffffffffffffffffffffffffffffffff168473ffffffffffffffffffffffffffffffffffffffff1603612059578181600201600082825461204d9190612e15565b92505081905550612132565b60008160000160008673ffffffffffffffffffffffffffffffffffffffff1673ffffffffffffffffffffffffffffffffffffffff168152602001908152602001600020549050828110156120e8578481846040517fe450d38c0000000000000000000000000000000000000000000000000000000081526004016120df93929190612a57565b60405180910390fd5b8281038260000160008773ffffffffffffffffffffffffffffffffffffffff1673ffffffffffffffffffffffffffffffffffffffff16815260200190815260200160002081905550505b600073ffffffffffffffffffffffffffffffffffffffff168373ffffffffffffffffffffffffffffffffffffffff160361217d578181600201600082825403925050819055506121cd565b818160000160008573ffffffffffffffffffffffffffffffffffffffff1673ffffffffffffffffffffffffffffffffffffffff168152602001908152602001600020600082825401925050819055505b8273ffffffffffffffffffffffffffffffffffffffff168473ffffffffffffffffffffffffffffffffffffffff167fddf252ad1be2c89b69c2b068fc378daa952ba7f163c4a11628f55a4df523b3ef8460405161222a9190612570565b60405180910390a350505050565b60608261224d57612248826122c7565b6122bf565b60008251148015612275575060008473ffffffffffffffffffffffffffffffffffffffff163b145b156122b757836040517f9996b3150000000000000000000000000000000000000000000000000000000081526004016122ae9190612a8e565b60405180910390fd5b8190506122c0565b5b9392505050565b6000815111156122da5780518082602001fd5b6040517f1425ea4200000000000000000000000000000000000000000000000000000000815260040160405180910390fd5b6000604051905090565b600080fd5b600080fd5b60007fffffffff0000000000000000000000000000000000000000000000000000000082169050919050565b61235581612320565b811461236057600080fd5b50565b6000813590506123728161234c565b92915050565b60006020828403121561238e5761238d612316565b5b600061239c84828501612363565b91505092915050565b60008115159050919050565b6123ba816123a5565b82525050565b60006020820190506123d560008301846123b1565b92915050565b600081519050919050565b600082825260208201905092915050565b60005b838110156124155780820151818401526020810190506123fa565b60008484015250505050565b6000601f19601f8301169050919050565b600061243d826123db565b61244781856123e6565b93506124578185602086016123f7565b61246081612421565b840191505092915050565b600060208201905081810360008301526124858184612432565b905092915050565b600073ffffffffffffffffffffffffffffffffffffffff82169050919050565b60006124b88261248d565b9050919050565b6124c8816124ad565b81146124d357600080fd5b50565b6000813590506124e5816124bf565b92915050565b6000819050919050565b6124fe816124eb565b811461250957600080fd5b50565b60008135905061251b816124f5565b92915050565b6000806040838503121561253857612537612316565b5b6000612546858286016124d6565b92505060206125578582860161250c565b9150509250929050565b61256a816124eb565b82525050565b60006020820190506125856000830184612561565b92915050565b6000806000606084860312156125a4576125a3612316565b5b60006125b2868287016124d6565b93505060206125c3868287016124d6565b92505060406125d48682870161250c565b9150509250925092565b6000819050919050565b6125f1816125de565b81146125fc57600080fd5b50565b60008135905061260e816125e8565b92915050565b60006020828403121561262a57612629612316565b5b6000612638848285016125ff565b91505092915050565b61264a816125de565b82525050565b60006020820190506126656000830184612641565b92915050565b6000806040838503121561268257612681612316565b5b6000612690858286016125ff565b92505060206126a1858286016124d6565b9150509250929050565b600060ff82169050919050565b6126c1816126ab565b82525050565b60006020820190506126dc60008301846126b8565b92915050565b6000602082840312156126f8576126f7612316565b5b60006127068482850161250c565b91505092915050565b600080fd5b600080fd5b7f4e487b7100000000000000000000000000000000000000000000000000000000600052604160045260246000fd5b61275182612421565b810181811067ffffffffffffffff821117156127705761276f612719565b5b80604052505050565b600061278361230c565b905061278f8282612748565b919050565b600067ffffffffffffffff8211156127af576127ae612719565b5b6127b882612421565b9050602081019050919050565b82818337600083830152505050565b60006127e76127e284612794565b612779565b90508281526020810184848401111561280357612802612714565b5b61280e8482856127c5565b509392505050565b600082601f83011261282b5761282a61270f565b5b813561283b8482602086016127d4565b91505092915050565b6000806040838503121561285b5761285a612316565b5b6000612869858286016124d6565b925050602083013567ffffffffffffffff81111561288a5761288961231b565b5b61289685828601612816565b9150509250929050565b6000602082840312156128b6576128b5612316565b5b60006128c4848285016124d6565b91505092915050565b600080604083850312156128e4576128e3612316565b5b60006128f2858286016124d6565b9250506020612903858286016124d6565b9150509250929050565b6000806000806080858703121561292757612926612316565b5b6000612935878288016124d6565b9450506020612946878288016124d6565b9350506040612957878288016124d6565b9250506060612968878288016124d6565b91505092959194509250565b7f4e487b7100000000000000000000000000000000000000000000000000000000600052602260045260246000fd5b600060028204905060018216806129bb57607f821691505b6020821081036129ce576129cd612974565b5b50919050565b6000819050919050565b600067ffffffffffffffff82169050919050565b6000819050919050565b6000612a17612a12612a0d846129d4565b6129f2565b6129de565b9050919050565b612a27816129fc565b82525050565b6000602082019050612a426000830184612a1e565b92915050565b612a51816124ad565b82525050565b6000606082019050612a6c6000830186612a48565b612a796020830185612561565b612a866040830184612561565b949350505050565b6000602082019050612aa36000830184612a48565b92915050565b600081519050612ab8816125e8565b92915050565b600060208284031215612ad457612ad3612316565b5b6000612ae284828501612aa9565b91505092915050565b6000604082019050612b006000830185612a48565b612b0d6020830184612641565b9392505050565b60008190508160005260206000209050919050565b60006020601f8301049050919050565b600082821b905092915050565b600060088302612b767fffffffffffffffffffffffffffffffffffffffffffffffffffffffffffffffff82612b39565b612b808683612b39565b95508019841693508086168417925050509392505050565b6000612bb3612bae612ba9846124eb565b6129f2565b6124eb565b9050919050565b6000819050919050565b612bcd83612b98565b612be1612bd982612bba565b848454612b46565b825550505050565b600090565b612bf6612be9565b612c01818484612bc4565b505050565b5b81811015612c2557612c1a600082612bee565b600181019050612c07565b5050565b601f821115612c6a57612c3b81612b14565b612c4484612b29565b81016020851015612c53578190505b612c67612c5f85612b29565b830182612c06565b50505b505050565b600082821c905092915050565b6000612c8d60001984600802612c6f565b1980831691505092915050565b6000612ca68383612c7c565b9150826002028217905092915050565b612cbf826123db565b67ffffffffffffffff811115612cd857612cd7612719565b5b612ce282546129a3565b612ced828285612c29565b600060209050601f831160018114612d205760008415612d0e578287015190505b612d188582612c9a565b865550612d80565b601f198416612d2e86612b14565b60005b82811015612d5657848901518255600182019150602085019450602081019050612d31565b86831015612d735784890151612d6f601f891682612c7c565b8355505b6001600288020188555050505b505050505050565b600081519050919050565b600081905092915050565b6000612da982612d88565b612db38185612d93565b9350612dc38185602086016123f7565b80840191505092915050565b6000612ddb8284612d9e565b915081905092915050565b7f4e487b7100000000000000000000000000000000000000000000000000000000600052601160045260246000fd5b6000612e20826124eb565b9150612e2b836124eb565b9250828201905080821115612e4357612e42612de6565b5b9291505056fea26469706673582212205f715ffbd05a436c00e6f11500169444107eb5dce8c2ec911cf19987346c09bb64736f6c63430008180033",
  "linkReferences": {},
  "deployedLinkReferences": {}
}